{
  "abi": [
    {
      "type": "constructor",
      "inputs": [
        {
          "name": "_controller",
          "type": "address",
          "internalType": "address"
        }
      ],
      "stateMutability": "nonpayable"
    },
    {
      "type": "function",
      "name": "allPairs",
      "inputs": [
        {
          "name": "",
          "type": "uint256",
          "internalType": "uint256"
        }
      ],
      "outputs": [
        {
          "name": "",
          "type": "address",
          "internalType": "address"
        }
      ],
      "stateMutability": "view"
    },
    {
      "type": "function",
      "name": "allPairsLength",
      "inputs": [],
      "outputs": [
        {
          "name": "",
          "type": "uint256",
          "internalType": "uint256"
        }
      ],
      "stateMutability": "view"
    },
    {
      "type": "function",
      "name": "becomeController",
      "inputs": [],
      "outputs": [],
      "stateMutability": "nonpayable"
    },
    {
      "type": "function",
      "name": "controller",
      "inputs": [],
      "outputs": [
        {
          "name": "",
          "type": "address",
          "internalType": "address"
        }
      ],
      "stateMutability": "view"
    },
    {
      "type": "function",
      "name": "createPair",
      "inputs": [
        {
          "name": "tokenA",
          "type": "address",
          "internalType": "address"
        },
        {
          "name": "tokenB",
          "type": "address",
          "internalType": "address"
        }
      ],
      "outputs": [
        {
          "name": "pair",
          "type": "address",
          "internalType": "address"
        }
      ],
      "stateMutability": "nonpayable"
    },
    {
      "type": "function",
      "name": "getInitCodeHash",
      "inputs": [],
      "outputs": [
        {
          "name": "",
          "type": "bytes32",
          "internalType": "bytes32"
        }
      ],
      "stateMutability": "pure"
    },
    {
      "type": "function",
      "name": "getPair",
      "inputs": [
        {
          "name": "",
          "type": "address",
          "internalType": "address"
        },
        {
          "name": "",
          "type": "address",
          "internalType": "address"
        },
        {
          "name": "",
          "type": "uint256",
          "internalType": "uint256"
        }
      ],
      "outputs": [
        {
          "name": "",
          "type": "address",
          "internalType": "address"
        }
      ],
      "stateMutability": "view"
    },
    {
      "type": "function",
      "name": "getPairCount",
      "inputs": [
        {
          "name": "",
          "type": "address",
          "internalType": "address"
        },
        {
          "name": "",
          "type": "address",
          "internalType": "address"
        }
      ],
      "outputs": [
        {
          "name": "",
          "type": "uint256",
          "internalType": "uint256"
        }
      ],
      "stateMutability": "view"
    },
    {
      "type": "function",
      "name": "open2public",
      "inputs": [],
      "outputs": [],
      "stateMutability": "nonpayable"
    },
    {
      "type": "function",
      "name": "pendingController",
      "inputs": [],
      "outputs": [
        {
          "name": "",
          "type": "address",
          "internalType": "address"
        }
      ],
      "stateMutability": "view"
    },
    {
      "type": "function",
      "name": "permissionless",
      "inputs": [],
      "outputs": [
        {
          "name": "",
          "type": "bool",
          "internalType": "bool"
        }
      ],
      "stateMutability": "view"
    },
    {
      "type": "function",
      "name": "setController",
      "inputs": [
        {
          "name": "_controller",
          "type": "address",
          "internalType": "address"
        }
      ],
      "outputs": [],
      "stateMutability": "nonpayable"
    },
    {
      "type": "event",
      "name": "PairCreated",
      "inputs": [
        {
          "name": "token0",
          "type": "address",
          "indexed": true,
          "internalType": "address"
        },
        {
          "name": "token1",
          "type": "address",
          "indexed": true,
          "internalType": "address"
        },
        {
          "name": "id",
          "type": "uint256",
          "indexed": false,
          "internalType": "uint256"
        },
        {
          "name": "pair",
          "type": "address",
          "indexed": false,
          "internalType": "address"
        }
      ],
      "anonymous": false
    }
  ],
  "bytecode": {
    "object": "0x608060405234801561001057600080fd5b50604051613e33380380613e3383398101604081905261002f916100ae565b6001600160a01b0381166100895760405162461bcd60e51b815260206004820152601960248201527f636f6e74726f6c6c65722063616e6e6f74206265207a65726f00000000000000604482015260640160405180910390fd5b600080546001600160a01b0319166001600160a01b03929092169190911790556100de565b6000602082840312156100c057600080fd5b81516001600160a01b03811681146100d757600080fd5b9392505050565b613d46806100ed6000396000f3fe608060405234801561001057600080fd5b50600436106100b45760003560e01c806392eefe9b1161007157806392eefe9b14610176578063a1256f9f14610189578063a2cab3a1146101ad578063c6c5e21c146101c0578063c9c65396146101c8578063f77c4791146101db57600080fd5b806302c54874146100b95780631bf31828146100f75780631e3dd18b146101015780635431927d1461012c578063574f2ba3146101345780635eced4801461013c575b600080fd5b6100e46100c73660046106b1565b600260209081526000928352604080842090915290825290205481565b6040519081526020015b60405180910390f35b6100ff6101ee565b005b61011461010f3660046106e4565b610236565b6040516001600160a01b0390911681526020016100ee565b6100e4610260565b6004546100e4565b61011461014a3660046106fd565b60036020908152600093845260408085208252928452828420905282529020546001600160a01b031681565b6100ff610184366004610739565b610292565b60015461019d90600160a01b900460ff1681565b60405190151581526020016100ee565b600154610114906001600160a01b031681565b6100ff610334565b6101146101d63660046106b1565b61037e565b600054610114906001600160a01b031681565b6000546001600160a01b031633146102215760405162461bcd60e51b81526004016102189061075b565b60405180910390fd5b6001805460ff60a01b1916600160a01b179055565b6004818154811061024657600080fd5b6000918252602090912001546001600160a01b0316905081565b60006040518060200161027290610688565b6020820181038252601f19601f8201166040525080519060200120905090565b6001600160a01b0381166102e85760405162461bcd60e51b815260206004820152601960248201527f636f6e74726f6c6c65722063616e6e6f74206265207a65726f000000000000006044820152606401610218565b6000546001600160a01b031633146103125760405162461bcd60e51b81526004016102189061075b565b600180546001600160a01b0319166001600160a01b0392909216919091179055565b6001546001600160a01b0316331461035e5760405162461bcd60e51b81526004016102189061075b565b600180546001600160a01b03199081169091556000805490911633179055565b600154600090600160a01b900460ff16806103a357506000546001600160a01b031633145b6103bf5760405162461bcd60e51b81526004016102189061075b565b816001600160a01b0316836001600160a01b0316036104165760405162461bcd60e51b81526020600482015260136024820152726964656e746963616c2061646472657373657360681b6044820152606401610218565b600080836001600160a01b0316856001600160a01b03161061043957838561043c565b84845b90925090506001600160a01b0382166104865760405162461bcd60e51b815260206004820152600c60248201526b7a65726f206164647265737360a01b6044820152606401610218565b6001600160a01b0380831660009081526002602090815260408083209385168352929052908120805482906104ba90610794565b91829055506040516bffffffffffffffffffffffff19606086811b8216602084015285901b166034820152604881018290529091506000906068016040516020818303038152906040528051906020012090508060405161051a90610688565b8190604051809103906000f590508015801561053a573d6000803e3d6000fd5b5060405163485cc95560e01b81526001600160a01b03868116600483015285811660248301529196509086169063485cc95590604401600060405180830381600087803b15801561058a57600080fd5b505af115801561059e573d6000803e3d6000fd5b505050506001600160a01b038481166000908152600360209081526040808320938716835292905290812086916105d66001866107ad565b81526020808201929092526040908101600090812080546001600160a01b039586166001600160a01b0319918216179091556004805460018101825592527f8a35acfbc15ff81a39ae7d344fd709f28e8600b4aa8c65c6b64bfe7fe36bd19b90910180548a8616921682179055815186815292830152858316928716917fc3168168beb4136b347bbd2afd38adb2282984cdfba1e15b86d35942f015f4ca910160405180910390a35050505092915050565b61354a806107c783390190565b80356001600160a01b03811681146106ac57600080fd5b919050565b600080604083850312156106c457600080fd5b6106cd83610695565b91506106db60208401610695565b90509250929050565b6000602082840312156106f657600080fd5b5035919050565b60008060006060848603121561071257600080fd5b61071b84610695565b925061072960208501610695565b9150604084013590509250925092565b60006020828403121561074b57600080fd5b61075482610695565b9392505050565b6020808252600990820152683337b93134b23232b760b91b604082015260600190565b634e487b7160e01b600052601160045260246000fd5b6000600182016107a6576107a661077e565b5060010190565b818103818111156107c0576107c061077e565b9291505056fe60a0604052600180546001600160401b0319166102d01781556006556709b6e64a8ec60000600a5534801561003357600080fd5b5060408051808201825260048152632830b4b960e11b6020918201528151808301835260018152603160f81b9082015281517f8b73c3c69bb8fe3d512ecc4cf759cc79239f7b179b0ffacaa9a75d522b39400f818301527feb97ef53980152ad9ea08faf89a3bce92c73647576c726a0fba9da4e28269ade818401527fc89efdaa54c0f20c7adf612882df0950f5a951637e0307cdcb4c672f298b8bc66060820152466080808301919091523060a0808401919091528451808403909101815260c0909201909352805191012090819052613427610123600039600081816102fa0152610d7e01526134276000f3fe608060405234801561001057600080fd5b50600436106101ef5760003560e01c80637ecebe001161010f578063d4d5d32a116100a2578063e146141c11610071578063e146141c14610517578063e162402f1461052a578063f385cecb1461053d578063f46901ed1461054657600080fd5b8063d4d5d32a14610487578063d4f26c511461048f578063dc950d36146104a2578063e0b117ff146104c257600080fd5b8063b2118a8d116100de578063b2118a8d14610427578063c45a01551461043a578063c9f10f8c1461044d578063d21220a71461047457600080fd5b80637ecebe00146103ce5780637f568f18146103ee578063a22cb46514610401578063a9d9db4d1461041457600080fd5b80633644e5151161018757806359362b881161015657806359362b8814610355578063666093341461037d5780637b7e9fac146103a85780637bc90d1c146103bb57600080fd5b80633644e515146102f557806336e9332d1461031c578063485cc9551461032f57806353d56bf51461034257600080fd5b80630dfe1681116101c35780630dfe1681146102925780631bf1fffb146102ac57806322ff2a8e146102cd57806330d6618e146102e257600080fd5b8062f714ce146101f4578063017e7e58146102215780630902f1ac1461024c5780630d95e05414610254575b600080fd5b610207610202366004612f5d565b610559565b604080519283526020830191909152015b60405180910390f35b600354610234906001600160a01b031681565b6040516001600160a01b039091168152602001610218565b6102076105a7565b610282610262366004612f8d565b600d60209081526000928352604080842090915290825290205460ff1681565b6040519015158152602001610218565b60015461023490600160401b90046001600160a01b031681565b6102bf6102ba366004612fbb565b6106b2565b604051908152602001610218565b6102e06102db366004612feb565b6107a1565b005b6102bf6102f0366004613006565b6108f3565b6102bf7f000000000000000000000000000000000000000000000000000000000000000081565b600954610234906001600160a01b031681565b6102e061033d366004612f8d565b6109f8565b6102bf610350366004613041565b610a18565b61035d610b13565b604080516001600160401b03938416815292909116602083015201610218565b61039061038b366004613076565b610b8d565b6040516001600160401b039091168152602001610218565b6102e06103b63660046130ae565b610be3565b600154610390906001600160401b031681565b6102bf6103dc366004613160565b60076020526000908152604090205481565b6102e06103fc366004612fbb565b610ecf565b6102e061040f36600461317d565b610fac565b6102bf610422366004613041565b611068565b6102e06104353660046131ab565b611152565b600854610234906001600160a01b031681565b6102bf7fd7db667cdba90ca333b850481afd8f802dc1081fc1d7ee77ee75ae69468a0b1781565b600254610234906001600160a01b031681565b6102e061123d565b6102e061049d366004613160565b611273565b6102bf6104b0366004613160565b600b6020526000908152604090205481565b6104fc6104d03660046131ec565b600c60209081526000928352604080842090915290825290208054600182015460029092015490919083565b60408051938452602084019290925290820152606001610218565b6102bf610525366004613006565b61136d565b61020761053836600461320a565b61145e565b6102bf600a5481565b6102e0610554366004613160565b6114d9565b6000806006546001146105875760405162461bcd60e51b815260040161057e9061324c565b60405180910390fd5b60006006556105973385856115ec565b6001600655909590945092505050565b600480546001546040516370a0823160e01b81523093810193909352600092839291600160401b90046001600160a01b0316906370a0823190602401602060405180830381865afa158015610600573d6000803e3d6000fd5b505050506040513d601f19601f82011682018060405250810190610624919061326c565b61062e919061329b565b6005546002546040516370a0823160e01b815230600482015292945090916001600160a01b03909116906370a0823190602401602060405180830381865afa15801561067e573d6000803e3d6000fd5b505050506040513d601f19601f820116820180604052508101906106a2919061326c565b6106ac919061329b565b90509091565b60008162015180036106ec57670de0b6b3a7640000600a54664a620d26ead0e46106dc91906132ae565b6106e691906132db565b92915050565b816203f4800361071457670de0b6b3a7640000600a546680d5cceb1376a86106dc91906132ae565b8162093a800361073c57670de0b6b3a7640000600a5466c4cc884ac66cf86106dc91906132ae565b8162278d000361076557670de0b6b3a7640000600a54670197699c5ceeb4006106dc91906132ae565b60405162461bcd60e51b815260206004820152600c60248201526b696e76616c69642074696d6560a01b604482015260640161057e565b919050565b6006546001146107c35760405162461bcd60e51b815260040161057e9061324c565b6000600681905550336001600160a01b0316600860009054906101000a90046001600160a01b03166001600160a01b031663f77c47916040518163ffffffff1660e01b81526004016020604051808303816000875af115801561082a573d6000803e3d6000fd5b505050506040513d601f19601f8201168201806040525081019061084e91906132fd565b6001600160a01b0316146108745760405162461bcd60e51b815260040161057e9061331a565b6000816001600160401b0316116108cd5760405162461bcd60e51b815260206004820152601860248201527f68616c66206c6966652063616e6e6f74206265207a65726f0000000000000000604482015260640161057e565b6001805467ffffffffffffffff19166001600160401b0392909216919091178155600655565b60006006546001146109175760405162461bcd60e51b815260040161057e9061324c565b60006006556001600160a01b0385166109665760405162461bcd60e51b8152602060048201526011602482015270746f2063616e6e6f74206265207a65726f60781b604482015260640161057e565b6000610972858561187d565b925090506000610981846106b2565b9050610992876000858988866119a7565b6003546001600160a01b0316156109c5576109ae6002836132db565b600560008282546109bf919061333d565b90915550505b6002546109dd906001600160a01b0316333089611ae7565b6109e987878584611c17565b50506001600655949350505050565b610a028282611cc5565b5050600880546001600160a01b03191633179055565b6000600654600114610a3c5760405162461bcd60e51b815260040161057e9061324c565b60006006819055610a4d848461187d565b6003549093509091506001600160a01b031615610a8657610a6f6002826132db565b60056000828254610a80919061333d565b90915550505b600254610a9e906001600160a01b0316333087611ae7565b600154610abc90600160401b90046001600160a01b03168684611d36565b60408051858152602081018490526001600160a01b0387169160009133917f66251e495e6e69e208ab08e2bc259dbe2ef482a8c4a93b8984b03a1eb27e1b9e91015b60405180910390a45060016006559392505050565b600080600080610b4b6000546001600160401b0380821692600160401b8304821692600160801b8104831692600160c01b9091041690565b92965090945092509050610b6c8461038b6001600160401b0385164261329b565b9350610b858361038b6001600160401b0384164261329b565b925050509091565b6001546000908190610ba99084906001600160401b0316611e51565b90506000610bc1610bb983613350565b600f0b611e92565b9050610bda600f82900b6001600160401b038716612950565b95945050505050565b8242111580610bf0575082155b610c2e5760405162461bcd60e51b815260206004820152600f60248201526e65786365656420646561646c696e6560881b604482015260640161057e565b6001600160a01b038616610c7b5760405162461bcd60e51b81526020600482015260146024820152736f776e65722063616e6e6f74206265207a65726f60601b604482015260640161057e565b6001600160a01b038516610ccb5760405162461bcd60e51b81526020600482015260176024820152766f70657261746f722063616e6e6f74206265207a65726f60481b604482015260640161057e565b6001600160a01b038616600090815260076020526040812080547fd7db667cdba90ca333b850481afd8f802dc1081fc1d7ee77ee75ae69468a0b17918991899189919086610d1883613376565b909155506040805160208101969096526001600160a01b03948516908601529290911660608401521515608083015260a082015260c0810185905260e00160408051601f1981840301815290829052805160209182012061190160f01b918301919091527f00000000000000000000000000000000000000000000000000000000000000006022830152604282018190529150600090606201604051602081830303815290604052805190602001209050610e098185858080601f0160208091040260200160405190810160405280939291908181526020018383808284376000920191909152506129bb92505050565b6001600160a01b0316886001600160a01b031614610e5d5760405162461bcd60e51b8152602060048201526011602482015270696e76616c6964207369676e617475726560781b604482015260640161057e565b6001600160a01b038881166000818152600d60209081526040808320948c1680845294825291829020805460ff19168b151590811790915591519182527f17307eab39ab6107e8899845ad3d59bd9653f200f220920489ca2b5937696c31910160405180910390a35050505050505050565b600654600114610ef15760405162461bcd60e51b815260040161057e9061324c565b6000600681905550336001600160a01b0316600860009054906101000a90046001600160a01b03166001600160a01b031663f77c47916040518163ffffffff1660e01b81526004016020604051808303816000875af1158015610f58573d6000803e3d6000fd5b505050506040513d601f19601f82011682018060405250810190610f7c91906132fd565b6001600160a01b031614610fa25760405162461bcd60e51b815260040161057e9061331a565b600a556001600655565b6001600160a01b038216610ffc5760405162461bcd60e51b81526020600482015260176024820152766f70657261746f722063616e6e6f74206265207a65726f60481b604482015260640161057e565b336000818152600d602090815260408083206001600160a01b03871680855290835292819020805460ff191686151590811790915590519081529192917f17307eab39ab6107e8899845ad3d59bd9653f200f220920489ca2b5937696c31910160405180910390a35050565b600060065460011461108c5760405162461bcd60e51b815260040161057e9061324c565b6000600681905561109d8484612aa4565b6003549093509091506001600160a01b0316156110d6576110bf6002826132db565b600460008282546110d0919061333d565b90915550505b6001546110f590600160401b90046001600160a01b0316333087611ae7565b60025461110c906001600160a01b03168684611d36565b60408051858152602081018490526001600160a01b0387169160019133917f66251e495e6e69e208ab08e2bc259dbe2ef482a8c4a93b8984b03a1eb27e1b9e9101610afe565b6008546040805163f77c479160e01b8152905133926001600160a01b03169163f77c479191600480830192602092919082900301816000875af115801561119d573d6000803e3d6000fd5b505050506040513d601f19601f820116820180604052508101906111c191906132fd565b6001600160a01b0316146111e75760405162461bcd60e51b815260040161057e9061331a565b6001546001600160a01b03600160401b90910481169084160361120957600080fd5b6002546001600160a01b039081169084160361122457600080fd5b6112386001600160a01b0384168383611d36565b505050565b60065460011461125f5760405162461bcd60e51b815260040161057e9061324c565b600060065561126c612bc1565b6001600655565b6006546001146112955760405162461bcd60e51b815260040161057e9061324c565b6000600681905550336001600160a01b0316600860009054906101000a90046001600160a01b03166001600160a01b031663f77c47916040518163ffffffff1660e01b81526004016020604051808303816000875af11580156112fc573d6000803e3d6000fd5b505050506040513d601f19601f8201168201806040525081019061132091906132fd565b6001600160a01b0316146113465760405162461bcd60e51b815260040161057e9061331a565b600980546001600160a01b0319166001600160a01b03929092169190911790556001600655565b60006006546001146113915760405162461bcd60e51b815260040161057e9061324c565b60006006556001600160a01b0385166113e05760405162461bcd60e51b8152602060048201526011602482015270746f2063616e6e6f74206265207a65726f60781b604482015260640161057e565b60006113ec8585612aa4565b9250905060006113fb846106b2565b905061140c876001888688866119a7565b6003546001600160a01b03161561143f576114286002836132db565b60046000828254611439919061333d565b90915550505b6001546109dd90600160401b90046001600160a01b0316333089611ae7565b6001600160a01b0383166000908152600d60209081526040808320338452909152812054819060ff166114c25760405162461bcd60e51b815260206004820152600c60248201526b3737ba1037b832b930ba37b960a11b604482015260640161057e565b6114cd8585856115ec565b91509150935093915050565b6006546001146114fb5760405162461bcd60e51b815260040161057e9061324c565b6000600681905550336001600160a01b0316600860009054906101000a90046001600160a01b03166001600160a01b031663f77c47916040518163ffffffff1660e01b81526004016020604051808303816000875af1158015611562573d6000803e3d6000fd5b505050506040513d601f19601f8201168201806040525081019061158691906132fd565b6001600160a01b0316146115ac5760405162461bcd60e51b815260040161057e9061331a565b6003546001600160a01b0316156115c5576115c5612bc1565b600380546001600160a01b0319166001600160a01b03929092169190911790556001600655565b6001600160a01b0383166000908152600c6020908152604080832085845290915281208054600182018054600284018054868655928690559490945590929190806116685760405162461bcd60e51b815260206004820152600c60248201526b696e76616c6964206e6f746560a01b604482015260640161057e565b428111156116ab5760405162461bcd60e51b815260206004820152601060248201526f19585c9b1e481dda5d1a191c985dd85b60821b604482015260640161057e565b6000806116b66105a7565b915091506000806116c5610b13565b9092509050826116da886401000000006132ae565b6116e491906132db565b84896117346117006001600160401b038616600160401b61329b565b6117176001600160401b038816600160401b61329b565b61172590600160401b6132ae565b61172f91906132db565b612c53565b61173e91906132ae565b61174891906132db565b10156117e4576001546000975061177090600160401b90046001600160a01b03168a8a611d36565b600084611781600160401b8b6132ae565b61178b91906132db565b90506117978382612cfb565b604080518c8152602081018b90526001916001600160a01b038f16917f8595f614655883bce3496fde65b1ff62bb8b336cc93d72a91cd2f61f1566872f910160405180910390a35061186f565b600254600098506117ff906001600160a01b03168a89611d36565b600083611810600160401b8a6132ae565b61181a91906132db565b90506118268282612d48565b604080518c8152602081018a90526000916001600160a01b038f16917f8595f614655883bce3496fde65b1ff62bb8b336cc93d72a91cd2f61f1566872f910160405180910390a3505b505050505050935093915050565b600080600084116118c75760405162461bcd60e51b81526020600482015260146024820152731a5b9d985b1a59081a5b9c1d5d08185b5bdd5b9d60621b604482015260640161057e565b6000806118d26105a7565b915091506000806118e1610b13565b9092509050600160401b6118fe896001600160401b0384166132ae565b61190891906132db565b95506000611916878a61329b565b9050611922818561333d565b61192c86836132ae565b61193691906132db565b9550878610156119735760405162461bcd60e51b8152602060048201526008602482015267736c69707061676560c01b604482015260640161057e565b600085611984600160401b896132ae565b61198e91906132db565b905061199a8482612cfb565b5050505050509250929050565b6001600160a01b0386166000908152600b60205260408120805490826119cc83613376565b909155506001600160a01b0388166000908152600c60209081526040808320848452909152812091925087611a015785611a03565b865b90506000670de0b6b3a7640000611a1a818761333d565b611a24908a6132ae565b611a2e91906132db565b90506000670de0b6b3a7640000611a45818861333d565b611a4f908a6132ae565b611a5991906132db565b90506000611a67884261333d565b8386556001860183905560028601819055604080518881526020810187905290810185905260608101849052608081018290529091508b1515906001600160a01b038e16907f1a03e701f999967b189f59a5e5d6ddefdc9b644975d45bcf544d8755719a0bd79060a00160405180910390a3505050505050505050505050565b604080516001600160a01b0385811660248301528481166044830152606480830185905283518084039091018152608490920183526020820180516001600160e01b03166323b872dd60e01b1790529151600092839290881691611b4b919061338f565b6000604051808303816000865af19150503d8060008114611b88576040519150601f19603f3d011682016040523d82523d6000602084013e611b8d565b606091505b5091509150818015611bb7575080511580611bb7575080806020019051810190611bb791906133be565b611c0f5760405162461bcd60e51b815260206004820152602360248201527f7472616e7366657248656c7065723a207472616e7366657246726f6d206661696044820152621b195960ea1b606482015260840161057e565b505050505050565b6009546001600160a01b031615611cbf576000670de0b6b3a764000082611c4161172f86886132ae565b611c4b91906132ae565b611c5591906132db565b6009546040516352edeea160e01b81526001600160a01b038881166004830152602482018490529293509116906352edeea190604401600060405180830381600087803b158015611ca557600080fd5b505af1158015611cb9573d6000803e3d6000fd5b50505050505b50505050565b600154600160401b90046001600160a01b031615611cf55760405162461bcd60e51b815260040161057e9061331a565b6001805468010000000000000000600160e01b031916600160401b6001600160a01b0394851602179055600280546001600160a01b03191691909216179055565b604080516001600160a01b038481166024830152604480830185905283518084039091018152606490920183526020820180516001600160e01b031663a9059cbb60e01b1790529151600092839290871691611d92919061338f565b6000604051808303816000865af19150503d8060008114611dcf576040519150601f19603f3d011682016040523d82523d6000602084013e611dd4565b606091505b5091509150818015611dfe575080511580611dfe575080806020019051810190611dfe91906133be565b611e4a5760405162461bcd60e51b815260206004820152601f60248201527f7472616e7366657248656c7065723a207472616e73666572206661696c656400604482015260640161057e565b5050505050565b600081600003611e6057600080fd5b6000611e6c8484612da3565b905060016001607f1b036001600160801b0382161115611e8b57600080fd5b9392505050565b60006840000000000000000082600f0b12611eac57600080fd5b683fffffffffffffffff1982600f0b1215611ec957506000919050565b6001607f1b60006780000000000000008416600f0b1315611efb5770016a09e667f3bcc908b2fb1366ea957d3e0260801c5b60008367400000000000000016600f0b1315611f28577001306fe0a31b7152de8d5a46305c85edec0260801c5b60008367200000000000000016600f0b1315611f55577001172b83c7d517adcdf7c8c50eb14a791f0260801c5b60008367100000000000000016600f0b1315611f825770010b5586cf9890f6298b92b71842a983630260801c5b60008367080000000000000016600f0b1315611faf577001059b0d31585743ae7c548eb68ca417fd0260801c5b60008367040000000000000016600f0b1315611fdc57700102c9a3e778060ee6f7caca4f7a29bde80260801c5b60008367020000000000000016600f0b13156120095770010163da9fb33356d84a66ae336dcdfa3f0260801c5b60008367010000000000000016600f0b131561203657700100b1afa5abcbed6129ab13ec11dc95430260801c5b600083668000000000000016600f0b13156120625770010058c86da1c09ea1ff19d294cf2f679b0260801c5b600083664000000000000016600f0b131561208e577001002c605e2e8cec506d21bfc89a23a00f0260801c5b600083662000000000000016600f0b13156120ba57700100162f3904051fa128bca9c55c31e5df0260801c5b600083661000000000000016600f0b13156120e6577001000b175effdc76ba38e31671ca9397250260801c5b600083660800000000000016600f0b131561211257700100058ba01fb9f96d6cacd4b180917c3d0260801c5b600083660400000000000016600f0b131561213e5770010002c5cc37da9491d0985c348c68e7b30260801c5b600083660200000000000016600f0b131561216a577001000162e525ee054754457d59952920260260801c5b600083660100000000000016600f0b13156121965770010000b17255775c040618bf4a4ade83fc0260801c5b6000836580000000000016600f0b13156121c1577001000058b91b5bc9ae2eed81e9b7d4cfab0260801c5b6000836540000000000016600f0b13156121ec57700100002c5c89d5ec6ca4d7c8acc017b7c90260801c5b6000836520000000000016600f0b13156122175770010000162e43f4f831060e02d839a9d16d0260801c5b6000836510000000000016600f0b131561224257700100000b1721bcfc99d9f890ea069117630260801c5b6000836508000000000016600f0b131561226d5770010000058b90cf1e6d97f9ca14dbcc16280260801c5b6000836504000000000016600f0b1315612298577001000002c5c863b73f016468f6bac5ca2b0260801c5b6000836502000000000016600f0b13156122c357700100000162e430e5a18f6119e3c02282a50260801c5b6000836501000000000016600f0b13156122ee577001000000b1721835514b86e6d96efd1bfe0260801c5b60008364800000000016600f0b131561231857700100000058b90c0b48c6be5df846c5b2ef0260801c5b60008364400000000016600f0b13156123425770010000002c5c8601cc6b9e94213c72737a0260801c5b60008364200000000016600f0b131561236c577001000000162e42fff037df38aa2b219f060260801c5b60008364100000000016600f0b13156123965770010000000b17217fba9c739aa5819f44f90260801c5b60008364080000000016600f0b13156123c0577001000000058b90bfcdee5acd3c1cedc8230260801c5b60008364040000000016600f0b13156123ea57700100000002c5c85fe31f35a6a30da1be500260801c5b60008364020000000016600f0b13156124145770010000000162e42ff0999ce3541b9fffcf0260801c5b60008364010000000016600f0b131561243e57700100000000b17217f80f4ef5aadda455540260801c5b600083638000000016600f0b13156124675770010000000058b90bfbf8479bd5a81b51ad0260801c5b600083634000000016600f0b1315612490577001000000002c5c85fdf84bd62ae30a74cc0260801c5b600083632000000016600f0b13156124b957700100000000162e42fefb2fed257559bdaa0260801c5b600083631000000016600f0b13156124e2577001000000000b17217f7d5a7716bba4a9ae0260801c5b600083630800000016600f0b131561250b57700100000000058b90bfbe9ddbac5e109cce0260801c5b600083630400000016600f0b13156125345770010000000002c5c85fdf4b15de6f17eb0d0260801c5b600083630200000016600f0b131561255d577001000000000162e42fefa494f1478fde050260801c5b600083630100000016600f0b13156125865770010000000000b17217f7d20cf927c8e94c0260801c5b6000836280000016600f0b13156125ae577001000000000058b90bfbe8f71cb4e4b33d0260801c5b6000836240000016600f0b13156125d657700100000000002c5c85fdf477b662b269450260801c5b6000836220000016600f0b13156125fe5770010000000000162e42fefa3ae53369388c0260801c5b6000836210000016600f0b131561262657700100000000000b17217f7d1d351a389d400260801c5b6000836208000016600f0b131561264e5770010000000000058b90bfbe8e8b2d3d4ede0260801c5b6000836204000016600f0b1315612676577001000000000002c5c85fdf4741bea6e77e0260801c5b6000836202000016600f0b131561269e57700100000000000162e42fefa39fe95583c20260801c5b6000836201000016600f0b13156126c6577001000000000000b17217f7d1cfb72b45e10260801c5b60008361800016600f0b13156126ed57700100000000000058b90bfbe8e7cc35c3f00260801c5b60008361400016600f0b13156127145770010000000000002c5c85fdf473e242ea380260801c5b60008361200016600f0b131561273b577001000000000000162e42fefa39f02b772c0260801c5b60008361100016600f0b13156127625770010000000000000b17217f7d1cf7d83c1a0260801c5b60008361080016600f0b1315612789577001000000000000058b90bfbe8e7bdcbe2e0260801c5b60008361040016600f0b13156127b057700100000000000002c5c85fdf473dea871f0260801c5b60008361020016600f0b13156127d75770010000000000000162e42fefa39ef44d910260801c5b60008361010016600f0b13156127fe57700100000000000000b17217f7d1cf79e9490260801c5b600083608016600f0b13156128245770010000000000000058b90bfbe8e7bce5440260801c5b600083604016600f0b131561284a577001000000000000002c5c85fdf473de6eca0260801c5b600083602016600f0b131561287057700100000000000000162e42fefa39ef366f0260801c5b600083601016600f0b1315612896577001000000000000000b17217f7d1cf79afa0260801c5b600083600816600f0b13156128bc57700100000000000000058b90bfbe8e7bcd6d0260801c5b600083600416600f0b13156128e25770010000000000000002c5c85fdf473de6b20260801c5b600083600216600f0b1315612908577001000000000000000162e42fefa39ef3580260801c5b600083600116600f0b131561292e5770010000000000000000b17217f7d1cf79ab0260801c5b600f83810b60401d603f03900b1c60016001607f1b038111156106e657600080fd5b600081600003612962575060006106e6565b600083600f0b121561297357600080fd5b600f83900b6001600160801b038316810260401c90608084901c026001600160c01b038111156129a257600080fd5b60401b81198111156129b357600080fd5b019392505050565b60008151604103612a9c5760208201516040830151606084015160001a7f7fffffffffffffffffffffffffffffff5d576e7357a4501ddfe92f46681b20a0821115612a0c57600093505050506106e6565b8060ff16601b14158015612a2457508060ff16601c14155b15612a3557600093505050506106e6565b60408051600081526020810180835288905260ff831691810191909152606081018490526080810183905260019060a0016020604051602081039080840390855afa158015612a88573d6000803e3d6000fd5b5050506020604051035193505050506106e6565b5060006106e6565b60008060008411612aee5760405162461bcd60e51b81526020600482015260146024820152731a5b9d985b1a59081a5b9c1d5d08185b5bdd5b9d60621b604482015260640161057e565b600080612af96105a7565b91509150600080612b08610b13565b9092509050600160401b612b25896001600160401b0385166132ae565b612b2f91906132db565b95506000612b3d878a61329b565b9050612b49818661333d565b612b5385836132ae565b612b5d91906132db565b955087861015612b9a5760405162461bcd60e51b8152602060048201526008602482015267736c69707061676560c01b604482015260640161057e565b600084612bab600160401b896132ae565b612bb591906132db565b905061199a8382612d48565b6004805460058054600093849055929055600354600154919291612bf9916001600160a01b03600160401b9092048216911684611d36565b600354600254612c16916001600160a01b03918216911683611d36565b60408051838152602081018390527faf7c505ee772ec188af7067e1f73db08ab028e3d564273442b907742b9c41fa0910160405180910390a15050565b60b581600160881b8110612c6c5760409190911b9060801c5b69010000000000000000008110612c885760209190911b9060401c5b650100000000008110612ca05760109190911b9060201c5b63010000008110612cb65760089190911b9060101c5b62010000010260121c80820401600190811c80830401811c80830401811c80830401811c80830401811c80830401811c80830401901c80820481111561079c57900490565b612d058282612f08565b60008054426001600160401b03908116600160801b0277ffffffffffffffff0000000000000000ffffffffffffffff199092169316929092179190911790555050565b612d528282612f08565b6000805477ffffffffffffffff0000000000000000ffffffffffffffff16600160401b6001600160401b03938416026001600160c01b031617600160c01b4293909316929092029190911790555050565b600081600003612db257600080fd5b60006001600160c01b038411612ddd5782604085901b81612dd557612dd56132c5565b049050612ef4565b60c084811c6401000000008110612df6576020918201911c5b620100008110612e08576010918201911c5b6101008110612e19576008918201911c5b60108110612e29576004918201911c5b60048110612e39576002918201911c5b60028110612e48576001820191505b60bf820360018603901c6001018260ff0387901b81612e6957612e696132c5565b0492506001600160801b03831115612e8057600080fd5b608085901c83026001600160801b038616840260c088901c604089901b82811015612eac576001820391505b608084901b92900382811015612ec3576001820391505b829003608084901c8214612ed957612ed96133db565b888181612ee857612ee86132c5565b04870196505050505050505b6001600160801b03811115611e8b57600080fd5b60006001600160401b03808416908316600160401b612f2782846132ae565b612f3191906132db565b612f3b828461333d565b610bda919061329b565b6001600160a01b0381168114612f5a57600080fd5b50565b60008060408385031215612f7057600080fd5b823591506020830135612f8281612f45565b809150509250929050565b60008060408385031215612fa057600080fd5b8235612fab81612f45565b91506020830135612f8281612f45565b600060208284031215612fcd57600080fd5b5035919050565b80356001600160401b038116811461079c57600080fd5b600060208284031215612ffd57600080fd5b611e8b82612fd4565b6000806000806080858703121561301c57600080fd5b843561302781612f45565b966020860135965060408601359560600135945092505050565b60008060006060848603121561305657600080fd5b833561306181612f45565b95602085013595506040909401359392505050565b6000806040838503121561308957600080fd5b61309283612fd4565b946020939093013593505050565b8015158114612f5a57600080fd5b60008060008060008060a087890312156130c757600080fd5b86356130d281612f45565b955060208701356130e281612f45565b945060408701356130f2816130a0565b93506060870135925060808701356001600160401b038082111561311557600080fd5b818901915089601f83011261312957600080fd5b81358181111561313857600080fd5b8a602082850101111561314a57600080fd5b6020830194508093505050509295509295509295565b60006020828403121561317257600080fd5b8135611e8b81612f45565b6000806040838503121561319057600080fd5b823561319b81612f45565b91506020830135612f82816130a0565b6000806000606084860312156131c057600080fd5b83356131cb81612f45565b925060208401356131db81612f45565b929592945050506040919091013590565b600080604083850312156131ff57600080fd5b823561309281612f45565b60008060006060848603121561321f57600080fd5b833561322a81612f45565b925060208401359150604084013561324181612f45565b809150509250925092565b6020808252600690820152651b1bd8dad95960d21b604082015260600190565b60006020828403121561327e57600080fd5b5051919050565b634e487b7160e01b600052601160045260246000fd5b818103818111156106e6576106e6613285565b80820281158282048414176106e6576106e6613285565b634e487b7160e01b600052601260045260246000fd5b6000826132f857634e487b7160e01b600052601260045260246000fd5b500490565b60006020828403121561330f57600080fd5b8151611e8b81612f45565b6020808252600990820152683337b93134b23232b760b91b604082015260600190565b808201808211156106e6576106e6613285565b600081600f0b60016001607f1b0319810361336d5761336d613285565b60000392915050565b60006001820161338857613388613285565b5060010190565b6000825160005b818110156133b05760208186018101518583015201613396565b506000920191825250919050565b6000602082840312156133d057600080fd5b8151611e8b816130a0565b634e487b7160e01b600052600160045260246000fdfea2646970667358221220ed6c7eb466c3ccf5dfb7c98666edd85d61cfc775f63eb0fbe97fd24566bcd50464736f6c63430008110033a264697066735822122053ad9dc00329ac071012acf834689b591be0fa8bad0f606f9666dfbd9e7782b764736f6c63430008110033",
    "linkReferences": {}
  },
  "methodIdentifiers": {
    "allPairs(uint256)": "1e3dd18b",
    "allPairsLength()": "574f2ba3",
    "becomeController()": "c6c5e21c",
    "controller()": "f77c4791",
    "createPair(address,address)": "c9c65396",
    "getInitCodeHash()": "5431927d",
    "getPair(address,address,uint256)": "5eced480",
    "getPairCount(address,address)": "02c54874",
    "open2public()": "1bf31828",
    "pendingController()": "a2cab3a1",
    "permissionless()": "a1256f9f",
    "setController(address)": "92eefe9b"
  },
  "id": 20
}