{
  "abi": [
    {
      "type": "constructor",
      "inputs": [
        {
          "name": "_owner",
          "type": "address",
          "internalType": "address"
        }
      ],
      "stateMutability": "nonpayable"
    },
    {
      "type": "function",
      "name": "balanceOf",
      "inputs": [
        {
          "name": "",
          "type": "address",
          "internalType": "address"
        }
      ],
      "outputs": [
        {
          "name": "",
          "type": "uint256",
          "internalType": "uint256"
        }
      ],
      "stateMutability": "view"
    },
    {
      "type": "function",
      "name": "cooldown",
      "inputs": [
        {
          "name": "",
          "type": "address",
          "internalType": "address"
        }
      ],
      "outputs": [
        {
          "name": "",
          "type": "uint256",
          "internalType": "uint256"
        }
      ],
      "stateMutability": "view"
    },
    {
      "type": "function",
      "name": "getCurrentGlobalReserve",
      "inputs": [],
      "outputs": [
        {
          "name": "reserve",
          "type": "uint256",
          "internalType": "uint256"
        }
      ],
      "stateMutability": "view"
    },
    {
      "type": "function",
      "name": "getCurrentPoolReserve",
      "inputs": [
        {
          "name": "poolId",
          "type": "address",
          "internalType": "address"
        }
      ],
      "outputs": [
        {
          "name": "reserve",
          "type": "uint256",
          "internalType": "uint256"
        }
      ],
      "stateMutability": "view"
    },
    {
      "type": "function",
      "name": "globalPool",
      "inputs": [],
      "outputs": [
        {
          "name": "weight",
          "type": "uint256",
          "internalType": "uint256"
        },
        {
          "name": "rewardRate",
          "type": "uint256",
          "internalType": "uint256"
        },
        {
          "name": "lastUpdateTime",
          "type": "uint256",
          "internalType": "uint256"
        },
        {
          "name": "lastReserve",
          "type": "uint256",
          "internalType": "uint256"
        }
      ],
      "stateMutability": "view"
    },
    {
      "type": "function",
      "name": "grantSP",
      "inputs": [
        {
          "name": "to",
          "type": "address",
          "internalType": "address"
        },
        {
          "name": "amount",
          "type": "uint256",
          "internalType": "uint256"
        }
      ],
      "outputs": [],
      "stateMutability": "nonpayable"
    },
    {
      "type": "function",
      "name": "owner",
      "inputs": [],
      "outputs": [
        {
          "name": "",
          "type": "address",
          "internalType": "address"
        }
      ],
      "stateMutability": "view"
    },
    {
      "type": "function",
      "name": "pools",
      "inputs": [
        {
          "name": "",
          "type": "address",
          "internalType": "address"
        }
      ],
      "outputs": [
        {
          "name": "weight",
          "type": "uint256",
          "internalType": "uint256"
        },
        {
          "name": "rewardRate",
          "type": "uint256",
          "internalType": "uint256"
        },
        {
          "name": "lastUpdateTime",
          "type": "uint256",
          "internalType": "uint256"
        },
        {
          "name": "lastReserve",
          "type": "uint256",
          "internalType": "uint256"
        }
      ],
      "stateMutability": "view"
    },
    {
      "type": "function",
      "name": "rescueERC20",
      "inputs": [
        {
          "name": "tokenAddress",
          "type": "address",
          "internalType": "address"
        },
        {
          "name": "to",
          "type": "address",
          "internalType": "address"
        },
        {
          "name": "amount",
          "type": "uint256",
          "internalType": "uint256"
        }
      ],
      "outputs": [],
      "stateMutability": "nonpayable"
    },
    {
      "type": "function",
      "name": "setGlobalRewardRate",
      "inputs": [
        {
          "name": "rewardRate",
          "type": "uint256",
          "internalType": "uint256"
        },
        {
          "name": "weight",
          "type": "uint256",
          "internalType": "uint256"
        }
      ],
      "outputs": [],
      "stateMutability": "nonpayable"
    },
    {
      "type": "function",
      "name": "setPool",
      "inputs": [
        {
          "name": "poolId",
          "type": "address",
          "internalType": "address"
        }
      ],
      "outputs": [],
      "stateMutability": "nonpayable"
    },
    {
      "type": "function",
      "name": "setPoolRewardRate",
      "inputs": [
        {
          "name": "poolId",
          "type": "address",
          "internalType": "address"
        },
        {
          "name": "rewardRate",
          "type": "uint256",
          "internalType": "uint256"
        },
        {
          "name": "weight",
          "type": "uint256",
          "internalType": "uint256"
        }
      ],
      "outputs": [],
      "stateMutability": "nonpayable"
    },
    {
      "type": "function",
      "name": "transferOwnership",
      "inputs": [
        {
          "name": "_owner",
          "type": "address",
          "internalType": "address"
        }
      ],
      "outputs": [],
      "stateMutability": "nonpayable"
    },
    {
      "type": "event",
      "name": "GrantSP",
      "inputs": [
        {
          "name": "user",
          "type": "address",
          "indexed": true,
          "internalType": "address"
        },
        {
          "name": "poolId",
          "type": "address",
          "indexed": true,
          "internalType": "address"
        },
        {
          "name": "amountIn",
          "type": "uint256",
          "indexed": false,
          "internalType": "uint256"
        },
        {
          "name": "amountOut",
          "type": "uint256",
          "indexed": false,
          "internalType": "uint256"
        }
      ],
      "anonymous": false
    },
    {
      "type": "event",
      "name": "RateUpdated",
      "inputs": [
        {
          "name": "poolId",
          "type": "address",
          "indexed": true,
          "internalType": "address"
        },
        {
          "name": "rewardRate",
          "type": "uint256",
          "indexed": false,
          "internalType": "uint256"
        },
        {
          "name": "weight",
          "type": "uint256",
          "indexed": false,
          "internalType": "uint256"
        }
      ],
      "anonymous": false
    },
    {
      "type": "event",
      "name": "Swap",
      "inputs": [
        {
          "name": "user",
          "type": "address",
          "indexed": true,
          "internalType": "address"
        },
        {
          "name": "parent",
          "type": "address",
          "indexed": true,
          "internalType": "address"
        },
        {
          "name": "amountIn",
          "type": "uint256",
          "indexed": false,
          "internalType": "uint256"
        },
        {
          "name": "amountOut",
          "type": "uint256",
          "indexed": false,
          "internalType": "uint256"
        }
      ],
      "anonymous": false
    },
    {
      "type": "event",
      "name": "TransferOwnership",
      "inputs": [
        {
          "name": "newOwner",
          "type": "address",
          "indexed": false,
          "internalType": "address"
        }
      ],
      "anonymous": false
    }
  ],
  "bytecode": {
    "object": "0x608060405234801561001057600080fd5b5060405161183038038061183083398101604081905261002f916100ae565b6001600160a01b0381166100895760405162461bcd60e51b815260206004820152601460248201527f6f776e65722063616e6e6f74206265207a65726f000000000000000000000000604482015260640160405180910390fd5b600080546001600160a01b0319166001600160a01b03929092169190911790556100de565b6000602082840312156100c057600080fd5b81516001600160a01b03811681146100d757600080fd5b9392505050565b611743806100ed6000396000f3fe608060405234801561001057600080fd5b50600436106100cf5760003560e01c80638da5cb5b1161008c578063b2118a8d11610066578063b2118a8d146101f3578063b222e0c214610206578063f2fde38b14610226578063f531c1fa1461023957600080fd5b80638da5cb5b146101805780639975ac2f146101ab578063a4063dbc146101be57600080fd5b806339115784146100d45780634437152a1461010f5780634dfb841e1461012457806352edeea11461013757806353c487181461014a57806370a0823114610160575b600080fd5b6001546002546003546004546100ea9392919084565b6040805194855260208501939093529183015260608201526080015b60405180910390f35b61012261011d3660046114c6565b61024c565b005b6101226101323660046114e1565b61030a565b610122610145366004611503565b610385565b610152610462565b604051908152602001610106565b61015261016e3660046114c6565b60066020526000908152604090205481565b600054610193906001600160a01b031681565b6040516001600160a01b039091168152602001610106565b6101526101b93660046114c6565b610493565b6100ea6101cc3660046114c6565b60056020526000908152604090208054600182015460028301546003909301549192909184565b61012261020136600461152d565b6104df565b6101526102143660046114c6565b60076020526000908152604090205481565b6101226102343660046114c6565b610522565b610122610247366004611569565b6105ed565b6000546001600160a01b0316331461027f5760405162461bcd60e51b81526004016102769061159c565b60405180910390fd5b6001600160a01b03811660009081526005602052604090206102a082610493565b600382015542600282015569d3c21bcecceda1000000600182018190558082556040805182815260208101929092526001600160a01b038416917f6778305c6589874c7b48651fd6414793c4ac2fdf49403e5270649e087046a83b91015b60405180910390a25050565b6000546001600160a01b031633146103345760405162461bcd60e51b81526004016102769061159c565b61033c610462565b6004554260035560028290556001819055604080518381526020810183905230917f6778305c6589874c7b48651fd6414793c4ac2fdf49403e5270649e087046a83b91016102fe565b336000908152600560205260409020670de0b6b3a76400006103a781846115d5565b6103b19190611602565b915060006103be33610493565b905060006103d18285856000015461066d565b90506103dd8183611624565b60038401554260028401556001600160a01b03851660009081526006602052604081208054839290610410908490611637565b9091555050604080518581526020810183905233916001600160a01b038816917f56536211b22c049bb6a07a838731505301d35c7502ae3f2c7a54fc7b03248258910160405180910390a35050505050565b600454600254600354600092919061047a9042611624565b61048491906115d5565b61048e9190611637565b905090565b6001600160a01b03811660009081526005602052604081206003810154600182015460028301546104c49042611624565b6104ce91906115d5565b6104d89190611637565b9392505050565b6000546001600160a01b031633146105095760405162461bcd60e51b81526004016102769061159c565b61051d6001600160a01b03841683836106be565b505050565b6000546001600160a01b0316331461054c5760405162461bcd60e51b81526004016102769061159c565b6001600160a01b0381166105995760405162461bcd60e51b81526020600482015260146024820152736f776e65722063616e6e6f74206265207a65726f60601b6044820152606401610276565b600080546001600160a01b0319166001600160a01b0383169081179091556040519081527fcfaaa26691e16e66e73290fc725eee1a6b4e0e693a1640484937aac25ffb55a49060200160405180910390a150565b6001600160a01b038316600090815260056020526040902061060e84610493565b60038201554260028201556001810183905581815560408051848152602081018490526001600160a01b038616917f6778305c6589874c7b48651fd6414793c4ac2fdf49403e5270649e087046a83b910160405180910390a250505050565b60008061067a84846107d9565b9050600061069261068a8361164a565b600f0b61081c565b90506106b4866106ab8368010000000000000000611670565b600f0b906112da565b9695505050505050565b604080516001600160a01b038481166024830152604480830185905283518084039091018152606490920183526020820180516001600160e01b031663a9059cbb60e01b179052915160009283929087169161071a91906116a6565b6000604051808303816000865af19150503d8060008114610757576040519150601f19603f3d011682016040523d82523d6000602084013e61075c565b606091505b509150915081801561078657508051158061078657508080602001905181019061078691906116d5565b6107d25760405162461bcd60e51b815260206004820152601f60248201527f7472616e7366657248656c7065723a207472616e73666572206661696c6564006044820152606401610276565b5050505050565b6000816000036107e857600080fd5b60006107f48484611345565b905060016001607f1b036001600160801b038216111561081357600080fd5b90505b92915050565b60006840000000000000000082600f0b1261083657600080fd5b683fffffffffffffffff1982600f0b121561085357506000919050565b6001607f1b60006780000000000000008416600f0b13156108855770016a09e667f3bcc908b2fb1366ea957d3e0260801c5b60008367400000000000000016600f0b13156108b2577001306fe0a31b7152de8d5a46305c85edec0260801c5b60008367200000000000000016600f0b13156108df577001172b83c7d517adcdf7c8c50eb14a791f0260801c5b60008367100000000000000016600f0b131561090c5770010b5586cf9890f6298b92b71842a983630260801c5b60008367080000000000000016600f0b1315610939577001059b0d31585743ae7c548eb68ca417fd0260801c5b60008367040000000000000016600f0b131561096657700102c9a3e778060ee6f7caca4f7a29bde80260801c5b60008367020000000000000016600f0b13156109935770010163da9fb33356d84a66ae336dcdfa3f0260801c5b60008367010000000000000016600f0b13156109c057700100b1afa5abcbed6129ab13ec11dc95430260801c5b600083668000000000000016600f0b13156109ec5770010058c86da1c09ea1ff19d294cf2f679b0260801c5b600083664000000000000016600f0b1315610a18577001002c605e2e8cec506d21bfc89a23a00f0260801c5b600083662000000000000016600f0b1315610a4457700100162f3904051fa128bca9c55c31e5df0260801c5b600083661000000000000016600f0b1315610a70577001000b175effdc76ba38e31671ca9397250260801c5b600083660800000000000016600f0b1315610a9c57700100058ba01fb9f96d6cacd4b180917c3d0260801c5b600083660400000000000016600f0b1315610ac85770010002c5cc37da9491d0985c348c68e7b30260801c5b600083660200000000000016600f0b1315610af4577001000162e525ee054754457d59952920260260801c5b600083660100000000000016600f0b1315610b205770010000b17255775c040618bf4a4ade83fc0260801c5b6000836580000000000016600f0b1315610b4b577001000058b91b5bc9ae2eed81e9b7d4cfab0260801c5b6000836540000000000016600f0b1315610b7657700100002c5c89d5ec6ca4d7c8acc017b7c90260801c5b6000836520000000000016600f0b1315610ba15770010000162e43f4f831060e02d839a9d16d0260801c5b6000836510000000000016600f0b1315610bcc57700100000b1721bcfc99d9f890ea069117630260801c5b6000836508000000000016600f0b1315610bf75770010000058b90cf1e6d97f9ca14dbcc16280260801c5b6000836504000000000016600f0b1315610c22577001000002c5c863b73f016468f6bac5ca2b0260801c5b6000836502000000000016600f0b1315610c4d57700100000162e430e5a18f6119e3c02282a50260801c5b6000836501000000000016600f0b1315610c78577001000000b1721835514b86e6d96efd1bfe0260801c5b60008364800000000016600f0b1315610ca257700100000058b90c0b48c6be5df846c5b2ef0260801c5b60008364400000000016600f0b1315610ccc5770010000002c5c8601cc6b9e94213c72737a0260801c5b60008364200000000016600f0b1315610cf6577001000000162e42fff037df38aa2b219f060260801c5b60008364100000000016600f0b1315610d205770010000000b17217fba9c739aa5819f44f90260801c5b60008364080000000016600f0b1315610d4a577001000000058b90bfcdee5acd3c1cedc8230260801c5b60008364040000000016600f0b1315610d7457700100000002c5c85fe31f35a6a30da1be500260801c5b60008364020000000016600f0b1315610d9e5770010000000162e42ff0999ce3541b9fffcf0260801c5b60008364010000000016600f0b1315610dc857700100000000b17217f80f4ef5aadda455540260801c5b600083638000000016600f0b1315610df15770010000000058b90bfbf8479bd5a81b51ad0260801c5b600083634000000016600f0b1315610e1a577001000000002c5c85fdf84bd62ae30a74cc0260801c5b600083632000000016600f0b1315610e4357700100000000162e42fefb2fed257559bdaa0260801c5b600083631000000016600f0b1315610e6c577001000000000b17217f7d5a7716bba4a9ae0260801c5b600083630800000016600f0b1315610e9557700100000000058b90bfbe9ddbac5e109cce0260801c5b600083630400000016600f0b1315610ebe5770010000000002c5c85fdf4b15de6f17eb0d0260801c5b600083630200000016600f0b1315610ee7577001000000000162e42fefa494f1478fde050260801c5b600083630100000016600f0b1315610f105770010000000000b17217f7d20cf927c8e94c0260801c5b6000836280000016600f0b1315610f38577001000000000058b90bfbe8f71cb4e4b33d0260801c5b6000836240000016600f0b1315610f6057700100000000002c5c85fdf477b662b269450260801c5b6000836220000016600f0b1315610f885770010000000000162e42fefa3ae53369388c0260801c5b6000836210000016600f0b1315610fb057700100000000000b17217f7d1d351a389d400260801c5b6000836208000016600f0b1315610fd85770010000000000058b90bfbe8e8b2d3d4ede0260801c5b6000836204000016600f0b1315611000577001000000000002c5c85fdf4741bea6e77e0260801c5b6000836202000016600f0b131561102857700100000000000162e42fefa39fe95583c20260801c5b6000836201000016600f0b1315611050577001000000000000b17217f7d1cfb72b45e10260801c5b60008361800016600f0b131561107757700100000000000058b90bfbe8e7cc35c3f00260801c5b60008361400016600f0b131561109e5770010000000000002c5c85fdf473e242ea380260801c5b60008361200016600f0b13156110c5577001000000000000162e42fefa39f02b772c0260801c5b60008361100016600f0b13156110ec5770010000000000000b17217f7d1cf7d83c1a0260801c5b60008361080016600f0b1315611113577001000000000000058b90bfbe8e7bdcbe2e0260801c5b60008361040016600f0b131561113a57700100000000000002c5c85fdf473dea871f0260801c5b60008361020016600f0b13156111615770010000000000000162e42fefa39ef44d910260801c5b60008361010016600f0b131561118857700100000000000000b17217f7d1cf79e9490260801c5b600083608016600f0b13156111ae5770010000000000000058b90bfbe8e7bce5440260801c5b600083604016600f0b13156111d4577001000000000000002c5c85fdf473de6eca0260801c5b600083602016600f0b13156111fa57700100000000000000162e42fefa39ef366f0260801c5b600083601016600f0b1315611220577001000000000000000b17217f7d1cf79afa0260801c5b600083600816600f0b131561124657700100000000000000058b90bfbe8e7bcd6d0260801c5b600083600416600f0b131561126c5770010000000000000002c5c85fdf473de6b20260801c5b600083600216600f0b1315611292577001000000000000000162e42fefa39ef3580260801c5b600083600116600f0b13156112b85770010000000000000000b17217f7d1cf79ab0260801c5b600f83810b60401d603f03900b1c60016001607f1b0381111561081657600080fd5b6000816000036112ec57506000610816565b600083600f0b12156112fd57600080fd5b600f83900b6001600160801b038316810260401c90608084901c026001600160c01b0381111561132c57600080fd5b60401b811981111561133d57600080fd5b019392505050565b60008160000361135457600080fd5b60006001600160c01b03841161137f5782604085901b81611377576113776115ec565b049050611496565b60c084811c6401000000008110611398576020918201911c5b6201000081106113aa576010918201911c5b61010081106113bb576008918201911c5b601081106113cb576004918201911c5b600481106113db576002918201911c5b600281106113ea576001820191505b60bf820360018603901c6001018260ff0387901b8161140b5761140b6115ec565b0492506001600160801b0383111561142257600080fd5b608085901c83026001600160801b038616840260c088901c604089901b8281101561144e576001820391505b608084901b92900382811015611465576001820391505b829003608084901c821461147b5761147b6116f7565b88818161148a5761148a6115ec565b04870196505050505050505b6001600160801b0381111561081357600080fd5b80356001600160a01b03811681146114c157600080fd5b919050565b6000602082840312156114d857600080fd5b6104d8826114aa565b600080604083850312156114f457600080fd5b50508035926020909101359150565b6000806040838503121561151657600080fd5b61151f836114aa565b946020939093013593505050565b60008060006060848603121561154257600080fd5b61154b846114aa565b9250611559602085016114aa565b9150604084013590509250925092565b60008060006060848603121561157e57600080fd5b611587846114aa565b95602085013595506040909401359392505050565b6020808252600990820152683337b93134b23232b760b91b604082015260600190565b634e487b7160e01b600052601160045260246000fd5b8082028115828204841417610816576108166115bf565b634e487b7160e01b600052601260045260246000fd5b60008261161f57634e487b7160e01b600052601260045260246000fd5b500490565b81810381811115610816576108166115bf565b80820180821115610816576108166115bf565b600081600f0b60016001607f1b03198103611667576116676115bf565b60000392915050565b600f82810b9082900b036f7fffffffffffffffffffffffffffffff19811260016001607f1b0382131715610816576108166115bf565b6000825160005b818110156116c757602081860181015185830152016116ad565b506000920191825250919050565b6000602082840312156116e757600080fd5b8151801515811461081357600080fd5b634e487b7160e01b600052600160045260246000fdfea2646970667358221220b9d479ee36faa53a43595ed9699ba164da863ce25155ccd882b0b4d264eac10664736f6c63430008110033",
    "linkReferences": {}
  },
  "methodIdentifiers": {
    "balanceOf(address)": "70a08231",
    "cooldown(address)": "b222e0c2",
    "getCurrentGlobalReserve()": "53c48718",
    "getCurrentPoolReserve(address)": "9975ac2f",
    "globalPool()": "39115784",
    "grantSP(address,uint256)": "52edeea1",
    "owner()": "8da5cb5b",
    "pools(address)": "a4063dbc",
    "rescueERC20(address,address,uint256)": "b2118a8d",
    "setGlobalRewardRate(uint256,uint256)": "4dfb841e",
    "setPool(address)": "4437152a",
    "setPoolRewardRate(address,uint256,uint256)": "f531c1fa",
    "transferOwnership(address)": "f2fde38b"
  },
  "id": 21
}