{
  "abi": [
    {
      "type": "constructor",
      "inputs": [
        {
          "name": "_WETH",
          "type": "address",
          "internalType": "address"
        },
        {
          "name": "_owner",
          "type": "address",
          "internalType": "address"
        },
        {
          "name": "_factory",
          "type": "address",
          "internalType": "address"
        }
      ],
      "stateMutability": "nonpayable"
    },
    {
      "type": "receive",
      "stateMutability": "payable"
    },
    {
      "type": "function",
      "name": "CODE_HASH",
      "inputs": [],
      "outputs": [
        {
          "name": "",
          "type": "bytes32",
          "internalType": "bytes32"
        }
      ],
      "stateMutability": "view"
    },
    {
      "type": "function",
      "name": "DYSON_FACTORY",
      "inputs": [],
      "outputs": [
        {
          "name": "",
          "type": "address",
          "internalType": "address"
        }
      ],
      "stateMutability": "view"
    },
    {
      "type": "function",
      "name": "WETH",
      "inputs": [],
      "outputs": [
        {
          "name": "",
          "type": "address",
          "internalType": "address"
        }
      ],
      "stateMutability": "view"
    },
    {
      "type": "function",
      "name": "deposit",
      "inputs": [
        {
          "name": "tokenIn",
          "type": "address",
          "internalType": "address"
        },
        {
          "name": "tokenOut",
          "type": "address",
          "internalType": "address"
        },
        {
          "name": "index",
          "type": "uint256",
          "internalType": "uint256"
        },
        {
          "name": "to",
          "type": "address",
          "internalType": "address"
        },
        {
          "name": "input",
          "type": "uint256",
          "internalType": "uint256"
        },
        {
          "name": "minOutput",
          "type": "uint256",
          "internalType": "uint256"
        },
        {
          "name": "time",
          "type": "uint256",
          "internalType": "uint256"
        }
      ],
      "outputs": [
        {
          "name": "output",
          "type": "uint256",
          "internalType": "uint256"
        }
      ],
      "stateMutability": "nonpayable"
    },
    {
      "type": "function",
      "name": "depositETH",
      "inputs": [
        {
          "name": "tokenOut",
          "type": "address",
          "internalType": "address"
        },
        {
          "name": "index",
          "type": "uint256",
          "internalType": "uint256"
        },
        {
          "name": "to",
          "type": "address",
          "internalType": "address"
        },
        {
          "name": "minOutput",
          "type": "uint256",
          "internalType": "uint256"
        },
        {
          "name": "time",
          "type": "uint256",
          "internalType": "uint256"
        }
      ],
      "outputs": [
        {
          "name": "output",
          "type": "uint256",
          "internalType": "uint256"
        }
      ],
      "stateMutability": "payable"
    },
    {
      "type": "function",
      "name": "fairPrice",
      "inputs": [
        {
          "name": "pair",
          "type": "address",
          "internalType": "address"
        },
        {
          "name": "token0Amt",
          "type": "uint256",
          "internalType": "uint256"
        }
      ],
      "outputs": [
        {
          "name": "token1Amt",
          "type": "uint256",
          "internalType": "uint256"
        }
      ],
      "stateMutability": "view"
    },
    {
      "type": "function",
      "name": "multicall",
      "inputs": [
        {
          "name": "data",
          "type": "bytes[]",
          "internalType": "bytes[]"
        }
      ],
      "outputs": [
        {
          "name": "results",
          "type": "bytes[]",
          "internalType": "bytes[]"
        }
      ],
      "stateMutability": "nonpayable"
    },
    {
      "type": "function",
      "name": "owner",
      "inputs": [],
      "outputs": [
        {
          "name": "",
          "type": "address",
          "internalType": "address"
        }
      ],
      "stateMutability": "view"
    },
    {
      "type": "function",
      "name": "rely",
      "inputs": [
        {
          "name": "tokenAddress",
          "type": "address",
          "internalType": "address"
        },
        {
          "name": "contractAddress",
          "type": "address",
          "internalType": "address"
        },
        {
          "name": "enable",
          "type": "bool",
          "internalType": "bool"
        }
      ],
      "outputs": [],
      "stateMutability": "nonpayable"
    },
    {
      "type": "function",
      "name": "rescueERC20",
      "inputs": [
        {
          "name": "tokenAddress",
          "type": "address",
          "internalType": "address"
        },
        {
          "name": "to",
          "type": "address",
          "internalType": "address"
        },
        {
          "name": "amount",
          "type": "uint256",
          "internalType": "uint256"
        }
      ],
      "outputs": [],
      "stateMutability": "nonpayable"
    },
    {
      "type": "function",
      "name": "selfPermit",
      "inputs": [
        {
          "name": "token",
          "type": "address",
          "internalType": "address"
        },
        {
          "name": "value",
          "type": "uint256",
          "internalType": "uint256"
        },
        {
          "name": "deadline",
          "type": "uint256",
          "internalType": "uint256"
        },
        {
          "name": "v",
          "type": "uint8",
          "internalType": "uint8"
        },
        {
          "name": "r",
          "type": "bytes32",
          "internalType": "bytes32"
        },
        {
          "name": "s",
          "type": "bytes32",
          "internalType": "bytes32"
        }
      ],
      "outputs": [],
      "stateMutability": "nonpayable"
    },
    {
      "type": "function",
      "name": "setApprovalForAllWithSig",
      "inputs": [
        {
          "name": "pair",
          "type": "address",
          "internalType": "address"
        },
        {
          "name": "approved",
          "type": "bool",
          "internalType": "bool"
        },
        {
          "name": "deadline",
          "type": "uint256",
          "internalType": "uint256"
        },
        {
          "name": "sig",
          "type": "bytes",
          "internalType": "bytes"
        }
      ],
      "outputs": [],
      "stateMutability": "nonpayable"
    },
    {
      "type": "function",
      "name": "swap",
      "inputs": [
        {
          "name": "tokenIn",
          "type": "address",
          "internalType": "address"
        },
        {
          "name": "tokenOut",
          "type": "address",
          "internalType": "address"
        },
        {
          "name": "index",
          "type": "uint256",
          "internalType": "uint256"
        },
        {
          "name": "to",
          "type": "address",
          "internalType": "address"
        },
        {
          "name": "input",
          "type": "uint256",
          "internalType": "uint256"
        },
        {
          "name": "minOutput",
          "type": "uint256",
          "internalType": "uint256"
        }
      ],
      "outputs": [
        {
          "name": "output",
          "type": "uint256",
          "internalType": "uint256"
        }
      ],
      "stateMutability": "nonpayable"
    },
    {
      "type": "function",
      "name": "swapETHIn",
      "inputs": [
        {
          "name": "tokenOut",
          "type": "address",
          "internalType": "address"
        },
        {
          "name": "index",
          "type": "uint256",
          "internalType": "uint256"
        },
        {
          "name": "to",
          "type": "address",
          "internalType": "address"
        },
        {
          "name": "minOutput",
          "type": "uint256",
          "internalType": "uint256"
        }
      ],
      "outputs": [
        {
          "name": "output",
          "type": "uint256",
          "internalType": "uint256"
        }
      ],
      "stateMutability": "payable"
    },
    {
      "type": "function",
      "name": "swapETHInWithMultiHops",
      "inputs": [
        {
          "name": "tokens",
          "type": "address[]",
          "internalType": "address[]"
        },
        {
          "name": "indexes",
          "type": "uint256[]",
          "internalType": "uint256[]"
        },
        {
          "name": "to",
          "type": "address",
          "internalType": "address"
        },
        {
          "name": "minOutput",
          "type": "uint256",
          "internalType": "uint256"
        }
      ],
      "outputs": [
        {
          "name": "output",
          "type": "uint256",
          "internalType": "uint256"
        }
      ],
      "stateMutability": "payable"
    },
    {
      "type": "function",
      "name": "swapETHOut",
      "inputs": [
        {
          "name": "tokenIn",
          "type": "address",
          "internalType": "address"
        },
        {
          "name": "index",
          "type": "uint256",
          "internalType": "uint256"
        },
        {
          "name": "to",
          "type": "address",
          "internalType": "address"
        },
        {
          "name": "input",
          "type": "uint256",
          "internalType": "uint256"
        },
        {
          "name": "minOutput",
          "type": "uint256",
          "internalType": "uint256"
        }
      ],
      "outputs": [
        {
          "name": "output",
          "type": "uint256",
          "internalType": "uint256"
        }
      ],
      "stateMutability": "nonpayable"
    },
    {
      "type": "function",
      "name": "swapETHOutWithMultiHops",
      "inputs": [
        {
          "name": "tokens",
          "type": "address[]",
          "internalType": "address[]"
        },
        {
          "name": "indexes",
          "type": "uint256[]",
          "internalType": "uint256[]"
        },
        {
          "name": "to",
          "type": "address",
          "internalType": "address"
        },
        {
          "name": "input",
          "type": "uint256",
          "internalType": "uint256"
        },
        {
          "name": "minOutput",
          "type": "uint256",
          "internalType": "uint256"
        }
      ],
      "outputs": [
        {
          "name": "output",
          "type": "uint256",
          "internalType": "uint256"
        }
      ],
      "stateMutability": "nonpayable"
    },
    {
      "type": "function",
      "name": "swapWithMultiHops",
      "inputs": [
        {
          "name": "tokens",
          "type": "address[]",
          "internalType": "address[]"
        },
        {
          "name": "indexes",
          "type": "uint256[]",
          "internalType": "uint256[]"
        },
        {
          "name": "to",
          "type": "address",
          "internalType": "address"
        },
        {
          "name": "input",
          "type": "uint256",
          "internalType": "uint256"
        },
        {
          "name": "minOutput",
          "type": "uint256",
          "internalType": "uint256"
        }
      ],
      "outputs": [
        {
          "name": "output",
          "type": "uint256",
          "internalType": "uint256"
        }
      ],
      "stateMutability": "nonpayable"
    },
    {
      "type": "function",
      "name": "transferOwnership",
      "inputs": [
        {
          "name": "_owner",
          "type": "address",
          "internalType": "address"
        }
      ],
      "outputs": [],
      "stateMutability": "nonpayable"
    },
    {
      "type": "function",
      "name": "withdraw",
      "inputs": [
        {
          "name": "pair",
          "type": "address",
          "internalType": "address"
        },
        {
          "name": "index",
          "type": "uint256",
          "internalType": "uint256"
        },
        {
          "name": "to",
          "type": "address",
          "internalType": "address"
        }
      ],
      "outputs": [
        {
          "name": "token0Amt",
          "type": "uint256",
          "internalType": "uint256"
        },
        {
          "name": "token1Amt",
          "type": "uint256",
          "internalType": "uint256"
        }
      ],
      "stateMutability": "nonpayable"
    },
    {
      "type": "function",
      "name": "withdrawETH",
      "inputs": [
        {
          "name": "pair",
          "type": "address",
          "internalType": "address"
        },
        {
          "name": "index",
          "type": "uint256",
          "internalType": "uint256"
        },
        {
          "name": "to",
          "type": "address",
          "internalType": "address"
        }
      ],
      "outputs": [
        {
          "name": "token0Amt",
          "type": "uint256",
          "internalType": "uint256"
        },
        {
          "name": "token1Amt",
          "type": "uint256",
          "internalType": "uint256"
        }
      ],
      "stateMutability": "nonpayable"
    },
    {
      "type": "function",
      "name": "withdrawMultiPositions",
      "inputs": [
        {
          "name": "pairs",
          "type": "address[]",
          "internalType": "address[]"
        },
        {
          "name": "indexes",
          "type": "uint256[]",
          "internalType": "uint256[]"
        },
        {
          "name": "tos",
          "type": "address[]",
          "internalType": "address[]"
        }
      ],
      "outputs": [
        {
          "name": "token0Amounts",
          "type": "uint256[]",
          "internalType": "uint256[]"
        },
        {
          "name": "token1Amounts",
          "type": "uint256[]",
          "internalType": "uint256[]"
        }
      ],
      "stateMutability": "nonpayable"
    },
    {
      "type": "event",
      "name": "TransferOwnership",
      "inputs": [
        {
          "name": "newOwner",
          "type": "address",
          "indexed": false,
          "internalType": "address"
        }
      ],
      "anonymous": false
    }
  ],
  "bytecode": {
    "object": "0x60e06040523480156200001157600080fd5b5060405162002d9638038062002d9683398101604081905262000034916200018c565b6001600160a01b038216620000905760405162461bcd60e51b815260206004820152601460248201527f6f776e65722063616e6e6f74206265207a65726f00000000000000000000000060448201526064015b60405180910390fd5b6001600160a01b038316620000d75760405162461bcd60e51b815260206004820152600c60248201526b0d2dcecc2d8d2c840ae8aa8960a31b604482015260640162000087565b6001600160a01b03838116608052600080546001600160a01b031916848316179055811660a081905260408051635431927d60e01b81529051635431927d916004808201926020929091908290030181865afa1580156200013c573d6000803e3d6000fd5b505050506040513d601f19601f82011682018060405250810190620001629190620001d6565b60c05250620001f0915050565b80516001600160a01b03811681146200018757600080fd5b919050565b600080600060608486031215620001a257600080fd5b620001ad846200016f565b9250620001bd602085016200016f565b9150620001cd604085016200016f565b90509250925092565b600060208284031215620001e957600080fd5b5051919050565b60805160a05160c051612b0d62000289600039600081816101d2015281816115dc0152611ae8015260008181610226015281816115bb0152611ac7015260008181610149015281816103b5015281816104e50152818161058d01528181610733015281816108ed0152818161101e01528181611087015281816110fe015281816115170152818161158e015261187d0152612b0d6000f3fe6080604052600436106101395760003560e01c80638865305b116100ab578063c58b6a101161006f578063c58b6a10146103f7578063d29f140914610417578063f2fde38b14610437578063f3995c6714610457578063f5eacc2f14610477578063fecc1b9f1461049757600080fd5b80638865305b146103435780638da5cb5b14610356578063ac9650d814610376578063ad5c4648146103a3578063b2118a8d146103d757600080fd5b8063687a0b10116100fd578063687a0b101461026057806369328dec146102805780636d3a957c146102b55780636d48058e146102e35780637129b6401461030357806380500d201461032357600080fd5b806301c838fe1461017a5780630cd19cbe146101a05780630dff1165146101c057806312713bd2146101f4578063429d9b1d1461021457600080fd5b3661017557336001600160a01b037f0000000000000000000000000000000000000000000000000000000000000000161461017357600080fd5b005b600080fd5b61018d61018836600461201f565b6104aa565b6040519081526020015b60405180910390f35b3480156101ac57600080fd5b5061018d6101bb3660046120aa565b610716565b3480156101cc57600080fd5b5061018d7f000000000000000000000000000000000000000000000000000000000000000081565b34801561020057600080fd5b5061018d61020f3660046120fc565b610770565b34801561022057600080fd5b506102487f000000000000000000000000000000000000000000000000000000000000000081565b6040516001600160a01b039091168152602001610197565b34801561026c57600080fd5b5061018d61027b366004612128565b6108bb565b34801561028c57600080fd5b506102a061029b3660046121bd565b610ae2565b60408051928352602083019190915201610197565b3480156102c157600080fd5b506102d56102d03660046121ff565b610b6b565b6040516101979291906122d3565b3480156102ef57600080fd5b5061018d6102fe366004612128565b610d7e565b34801561030f57600080fd5b5061018d61031e3660046122f8565b610e7c565b34801561032f57600080fd5b506102a061033e3660046121bd565b610eac565b61018d6103513660046120aa565b611083565b34801561036257600080fd5b50600054610248906001600160a01b031681565b34801561038257600080fd5b5061039661039136600461235d565b611132565b60405161019791906123ee565b3480156103af57600080fd5b506102487f000000000000000000000000000000000000000000000000000000000000000081565b3480156103e357600080fd5b506101736103f2366004612450565b611289565b34801561040357600080fd5b5061017361041236600461249f565b6112cc565b34801561042357600080fd5b5061018d6104323660046124df565b61131b565b34801561044357600080fd5b5061017361045236600461254d565b61134d565b34801561046357600080fd5b50610173610472366004612571565b611418565b34801561048357600080fd5b506101736104923660046125b9565b6114a4565b61018d6104a5366004612657565b611513565b60008380158015906104be57506001810187145b6104e35760405162461bcd60e51b81526004016104da9061269f565b60405180910390fd5b7f00000000000000000000000000000000000000000000000000000000000000006001600160a01b031688886000818110610520576105206126d6565b9050602002016020810190610535919061254d565b6001600160a01b03161461058b5760405162461bcd60e51b815260206004820152601860248201527f666972737420746f6b656e206d7573742062652057455448000000000000000060448201526064016104da565b7f00000000000000000000000000000000000000000000000000000000000000006001600160a01b031663d0e30db0346040518263ffffffff1660e01b81526004016000604051808303818588803b1580156105e657600080fd5b505af11580156105fa573d6000803e3d6000fd5b503493506001925050505b82811015610690576106868a8a60018403818110610625576106256126d6565b905060200201602081019061063a919061254d565b8b8b8481811061064c5761064c6126d6565b9050602002016020810190610661919061254d565b8a8a60018603818110610676576106766126d6565b90506020020135308660006115b3565b9150600101610605565b6107088a8a600184038181106106a8576106a86126d6565b90506020020160208101906106bd919061254d565b8b8b848181106106cf576106cf6126d6565b90506020020160208101906106e4919061254d565b8a8a600186038181106106f9576106f96126d6565b9050602002013589868a6115b3565b9a9950505050505050505050565b600061072d6001600160a01b038716333086611737565b61075b867f0000000000000000000000000000000000000000000000000000000000000000873087876115b3565b90506107678482611867565b95945050505050565b6000806000846001600160a01b0316630902f1ac6040518163ffffffff1660e01b81526004016040805180830381865afa1580156107b2573d6000803e3d6000fd5b505050506040513d601f19601f820116820180604052508101906107d691906126ec565b91509150600080866001600160a01b03166359362b886040518163ffffffff1660e01b81526004016040805180830381865afa15801561081a573d6000803e3d6000fd5b505050506040513d601f19601f8201168201806040525081019061083e9190612727565b9092509050838361089a61085f6001600160401b038516600160401b612770565b6108766001600160401b038716600160401b612770565b61088160028c612867565b61088b9190612876565b610895919061288d565b6118f9565b6108a49190612876565b6108ae919061288d565b9450505050505b92915050565b60008480158015906108cf57506001810188145b6108eb5760405162461bcd60e51b81526004016104da9061269f565b7f00000000000000000000000000000000000000000000000000000000000000006001600160a01b0316898983818110610927576109276126d6565b905060200201602081019061093c919061254d565b6001600160a01b0316146109925760405162461bcd60e51b815260206004820152601760248201527f6c61737420746f6b656e206d757374206265205745544800000000000000000060448201526064016104da565b6109d13330868c8c60008181106109ab576109ab6126d6565b90506020020160208101906109c0919061254d565b6001600160a01b0316929190611737565b8360015b82811015610a5057610a468b8b600184038181106109f5576109f56126d6565b9050602002016020810190610a0a919061254d565b8c8c84818110610a1c57610a1c6126d6565b9050602002016020810190610a31919061254d565b8b8b60018603818110610676576106766126d6565b91506001016109d5565b610ac88b8b60018403818110610a6857610a686126d6565b9050602002016020810190610a7d919061254d565b8c8c84818110610a8f57610a8f6126d6565b9050602002016020810190610aa4919061254d565b8b8b60018603818110610ab957610ab96126d6565b9050602002013530868a6115b3565b9350610ad48785611867565b505050979650505050505050565b60405163e162402f60e01b8152336004820152602481018390526001600160a01b038281166044830152600091829186169063e162402f9060640160408051808303816000875af1158015610b3b573d6000803e3d6000fd5b505050506040513d601f19601f82011682018060405250810190610b5f91906126ec565b91509150935093915050565b606080868581148015610b7d57508084145b610b995760405162461bcd60e51b81526004016104da9061269f565b6000816001600160401b03811115610bb357610bb36128af565b604051908082528060200260200182016040528015610bdc578160200160208202803683370190505b5090506000826001600160401b03811115610bf957610bf96128af565b604051908082528060200260200182016040528015610c22578160200160208202803683370190505b50905060005b83811015610d6d576000808d8d84818110610c4557610c456126d6565b9050602002016020810190610c5a919061254d565b6001600160a01b031663e162402f338e8e87818110610c7b57610c7b6126d6565b905060200201358d8d88818110610c9457610c946126d6565b9050602002016020810190610ca9919061254d565b60405160e085901b6001600160e01b03191681526001600160a01b0393841660048201526024810192909252909116604482015260640160408051808303816000875af1158015610cfe573d6000803e3d6000fd5b505050506040513d601f19601f82011682018060405250810190610d2291906126ec565b9150915081858481518110610d3957610d396126d6565b60200260200101818152505080848481518110610d5857610d586126d6565b60209081029190910101525050600101610c28565b50909a909950975050505050505050565b6000848015801590610d9257506001810188145b610dae5760405162461bcd60e51b81526004016104da9061269f565b610dc73330868c8c60008181106109ab576109ab6126d6565b8360015b82811015610df557610deb8b8b600184038181106109f5576109f56126d6565b9150600101610dcb565b610e6d8b8b60018403818110610e0d57610e0d6126d6565b9050602002016020810190610e22919061254d565b8c8c84818110610e3457610e346126d6565b9050602002016020810190610e49919061254d565b8b8b60018603818110610e5e57610e5e6126d6565b905060200201358a868a6115b3565b9b9a5050505050505050505050565b6000610e936001600160a01b038816333086611737565b610ea18787878787876115b3565b979650505050505050565b60405163e162402f60e01b81523360048201526024810183905230604482015260009081906001600160a01b0386169063e162402f9060640160408051808303816000875af1158015610f03573d6000803e3d6000fd5b505050506040513d601f19601f82011682018060405250810190610f2791906126ec565b80925081935050506000856001600160a01b0316630dfe16816040518163ffffffff1660e01b8152600401602060405180830381865afa158015610f6f573d6000803e3d6000fd5b505050506040513d601f19601f82011682018060405250810190610f9391906128c5565b9050600080841161100557866001600160a01b031663d21220a76040518163ffffffff1660e01b8152600401602060405180830381865afa158015610fdc573d6000803e3d6000fd5b505050506040513d601f19601f8201168201806040525081019061100091906128c5565b611007565b815b90506000808511611018578361101a565b845b90507f00000000000000000000000000000000000000000000000000000000000000006001600160a01b0316826001600160a01b0316036110645761105f8682611867565b611078565b6110786001600160a01b03831687836119a4565b505050935093915050565b60007f00000000000000000000000000000000000000000000000000000000000000006001600160a01b031663d0e30db0346040518263ffffffff1660e01b81526004016000604051808303818588803b1580156110e057600080fd5b505af11580156110f4573d6000803e3d6000fd5b50505050506111287f0000000000000000000000000000000000000000000000000000000000000000878787348888611abf565b9695505050505050565b606081806001600160401b0381111561114d5761114d6128af565b60405190808252806020026020018201604052801561118057816020015b606081526020019060019003908161116b5790505b50915060005b8181101561128157600080308787858181106111a4576111a46126d6565b90506020028101906111b691906128e2565b6040516111c4929190612928565b600060405180830381855af49150503d80600081146111ff576040519150601f19603f3d011682016040523d82523d6000602084013e611204565b606091505b5091509150816112505760448151101561121d57600080fd5b600481019050808060200190518101906112379190612938565b60405162461bcd60e51b81526004016104da91906129d9565b80858481518110611263576112636126d6565b602002602001018190525050508061127a906129ec565b9050611186565b505092915050565b6000546001600160a01b031633146112b35760405162461bcd60e51b81526004016104da90612a05565b6112c76001600160a01b03841683836119a4565b505050565b6000546001600160a01b031633146112f65760405162461bcd60e51b81526004016104da90612a05565b6112c7828261130657600061130a565b6000195b6001600160a01b0386169190611c52565b60006113326001600160a01b038916333087611737565b61134188888888888888611abf565b98975050505050505050565b6000546001600160a01b031633146113775760405162461bcd60e51b81526004016104da90612a05565b6001600160a01b0381166113c45760405162461bcd60e51b81526020600482015260146024820152736f776e65722063616e6e6f74206265207a65726f60601b60448201526064016104da565b600080546001600160a01b0319166001600160a01b0383169081179091556040519081527fcfaaa26691e16e66e73290fc725eee1a6b4e0e693a1640484937aac25ffb55a49060200160405180910390a150565b60405163d505accf60e01b8152336004820152306024820152604481018690526064810185905260ff8416608482015260a4810183905260c481018290526001600160a01b0387169063d505accf9060e401600060405180830381600087803b15801561148457600080fd5b505af1158015611498573d6000803e3d6000fd5b50505050505050505050565b604051631edfa7eb60e21b81526001600160a01b03861690637b7e9fac906114da90339030908990899089908990600401612a28565b600060405180830381600087803b1580156114f457600080fd5b505af1158015611508573d6000803e3d6000fd5b505050505050505050565b60007f00000000000000000000000000000000000000000000000000000000000000006001600160a01b031663d0e30db0346040518263ffffffff1660e01b81526004016000604051808303818588803b15801561157057600080fd5b505af1158015611584573d6000803e3d6000fd5b50505050506107677f000000000000000000000000000000000000000000000000000000000000000086868634875b6000806116037f00000000000000000000000000000000000000000000000000000000000000007f00000000000000000000000000000000000000000000000000000000000000008a8a8a611d66565b905060006116118989611e2c565b509050806001600160a01b0316896001600160a01b0316036116ae5760405163a9d9db4d60e01b81526001600160a01b038781166004830152602482018790526044820186905283169063a9d9db4d906064016020604051808303816000875af1158015611683573d6000803e3d6000fd5b505050506040513d601f19601f820116820180604052508101906116a79190612a85565b925061172b565b6040516353d56bf560e01b81526001600160a01b03878116600483015260248201879052604482018690528316906353d56bf5906064016020604051808303816000875af1158015611704573d6000803e3d6000fd5b505050506040513d601f19601f820116820180604052508101906117289190612a85565b92505b50509695505050505050565b604080516001600160a01b0385811660248301528481166044830152606480830185905283518084039091018152608490920183526020820180516001600160e01b03166323b872dd60e01b179052915160009283929088169161179b9190612a9e565b6000604051808303816000865af19150503d80600081146117d8576040519150601f19603f3d011682016040523d82523d6000602084013e6117dd565b606091505b50915091508180156118075750805115806118075750808060200190518101906118079190612aba565b61185f5760405162461bcd60e51b815260206004820152602360248201527f7472616e7366657248656c7065723a207472616e7366657246726f6d206661696044820152621b195960ea1b60648201526084016104da565b505050505050565b604051632e1a7d4d60e01b8152600481018290527f00000000000000000000000000000000000000000000000000000000000000006001600160a01b031690632e1a7d4d90602401600060405180830381600087803b1580156118c957600080fd5b505af11580156118dd573d6000803e3d6000fd5b506118f5925050506001600160a01b03831682611efa565b5050565b60b581600160881b81106119125760409190911b9060801c5b6901000000000000000000811061192e5760209190911b9060401c5b6501000000000081106119465760109190911b9060201c5b6301000000811061195c5760089190911b9060101c5b62010000010260121c80820401600190811c80830401811c80830401811c80830401811c80830401811c80830401811c80830401901c80820481111561199f5781045b919050565b604080516001600160a01b038481166024830152604480830185905283518084039091018152606490920183526020820180516001600160e01b031663a9059cbb60e01b1790529151600092839290871691611a009190612a9e565b6000604051808303816000865af19150503d8060008114611a3d576040519150601f19603f3d011682016040523d82523d6000602084013e611a42565b606091505b5091509150818015611a6c575080511580611a6c575080806020019051810190611a6c9190612aba565b611ab85760405162461bcd60e51b815260206004820152601f60248201527f7472616e7366657248656c7065723a207472616e73666572206661696c65640060448201526064016104da565b5050505050565b600080611b0f7f00000000000000000000000000000000000000000000000000000000000000007f00000000000000000000000000000000000000000000000000000000000000008b8b8b611d66565b90506000611b1d8a8a611e2c565b509050806001600160a01b03168a6001600160a01b031603611bc157604051633851850760e21b81526001600160a01b03888116600483015260248201889052604482018790526064820186905283169063e146141c906084016020604051808303816000875af1158015611b96573d6000803e3d6000fd5b505050506040513d601f19601f82011682018060405250810190611bba9190612a85565b9250611c45565b60405163186b30c760e11b81526001600160a01b0388811660048301526024820188905260448201879052606482018690528316906330d6618e906084016020604051808303816000875af1158015611c1e573d6000803e3d6000fd5b505050506040513d601f19601f82011682018060405250810190611c429190612a85565b92505b5050979650505050505050565b604080516001600160a01b038481166024830152604480830185905283518084039091018152606490920183526020820180516001600160e01b031663095ea7b360e01b1790529151600092839290871691611cae9190612a9e565b6000604051808303816000865af19150503d8060008114611ceb576040519150601f19603f3d011682016040523d82523d6000602084013e611cf0565b606091505b5091509150818015611d1a575080511580611d1a575080806020019051810190611d1a9190612aba565b611ab85760405162461bcd60e51b815260206004820152601e60248201527f7472616e7366657248656c7065723a20617070726f7665206661696c6564000060448201526064016104da565b6000806000611d758686611e2c565b6040516bffffffffffffffffffffffff19606084811b8216602084015283901b16603482015260488101879052919350915088906068016040516020818303038152906040528051906020012088604051602001611e08939291906001600160f81b0319815260609390931b6bffffffffffffffffffffffff191660018401526015830191909152603582015260550190565b60408051601f19818403018152919052805160209091012098975050505050505050565b600080826001600160a01b0316846001600160a01b031603611e865760405162461bcd60e51b81526020600482015260136024820152726964656e746963616c2061646472657373657360681b60448201526064016104da565b826001600160a01b0316846001600160a01b031610611ea6578284611ea9565b83835b90925090506001600160a01b038216611ef35760405162461bcd60e51b815260206004820152600c60248201526b7a65726f206164647265737360a01b60448201526064016104da565b9250929050565b604080516000808252602082019092526001600160a01b038416908390604051611f249190612a9e565b60006040518083038185875af1925050503d8060008114611f61576040519150601f19603f3d011682016040523d82523d6000602084013e611f66565b606091505b50509050806112c75760405162461bcd60e51b815260206004820152602360248201527f7472616e7366657248656c7065723a20455448207472616e73666572206661696044820152621b195960ea1b60648201526084016104da565b60008083601f840112611fd557600080fd5b5081356001600160401b03811115611fec57600080fd5b6020830191508360208260051b8501011115611ef357600080fd5b6001600160a01b038116811461201c57600080fd5b50565b6000806000806000806080878903121561203857600080fd5b86356001600160401b038082111561204f57600080fd5b61205b8a838b01611fc3565b9098509650602089013591508082111561207457600080fd5b5061208189828a01611fc3565b909550935050604087013561209581612007565b80925050606087013590509295509295509295565b600080600080600060a086880312156120c257600080fd5b85356120cd81612007565b94506020860135935060408601356120e481612007565b94979396509394606081013594506080013592915050565b6000806040838503121561210f57600080fd5b823561211a81612007565b946020939093013593505050565b600080600080600080600060a0888a03121561214357600080fd5b87356001600160401b038082111561215a57600080fd5b6121668b838c01611fc3565b909950975060208a013591508082111561217f57600080fd5b5061218c8a828b01611fc3565b90965094505060408801356121a081612007565b969995985093969295946060840135945060809093013592915050565b6000806000606084860312156121d257600080fd5b83356121dd81612007565b92506020840135915060408401356121f481612007565b809150509250925092565b6000806000806000806060878903121561221857600080fd5b86356001600160401b038082111561222f57600080fd5b61223b8a838b01611fc3565b9098509650602089013591508082111561225457600080fd5b6122608a838b01611fc3565b9096509450604089013591508082111561227957600080fd5b5061228689828a01611fc3565b979a9699509497509295939492505050565b600081518084526020808501945080840160005b838110156122c8578151875295820195908201906001016122ac565b509495945050505050565b6040815260006122e66040830185612298565b82810360208401526107678185612298565b60008060008060008060c0878903121561231157600080fd5b863561231c81612007565b9550602087013561232c81612007565b945060408701359350606087013561234381612007565b9598949750929560808101359460a0909101359350915050565b6000806020838503121561237057600080fd5b82356001600160401b0381111561238657600080fd5b61239285828601611fc3565b90969095509350505050565b60005b838110156123b95781810151838201526020016123a1565b50506000910152565b600081518084526123da81602086016020860161239e565b601f01601f19169290920160200192915050565b6000602080830181845280855180835260408601915060408160051b870101925083870160005b8281101561244357603f198886030184526124318583516123c2565b94509285019290850190600101612415565b5092979650505050505050565b60008060006060848603121561246557600080fd5b833561247081612007565b9250602084013561248081612007565b929592945050506040919091013590565b801515811461201c57600080fd5b6000806000606084860312156124b457600080fd5b83356124bf81612007565b925060208401356124cf81612007565b915060408401356121f481612491565b600080600080600080600060e0888a0312156124fa57600080fd5b873561250581612007565b9650602088013561251581612007565b955060408801359450606088013561252c81612007565b9699959850939660808101359560a0820135955060c0909101359350915050565b60006020828403121561255f57600080fd5b813561256a81612007565b9392505050565b60008060008060008060c0878903121561258a57600080fd5b863561259581612007565b95506020870135945060408701359350606087013560ff8116811461234357600080fd5b6000806000806000608086880312156125d157600080fd5b85356125dc81612007565b945060208601356125ec81612491565b93506040860135925060608601356001600160401b038082111561260f57600080fd5b818801915088601f83011261262357600080fd5b81358181111561263257600080fd5b89602082850101111561264457600080fd5b9699959850939650602001949392505050565b6000806000806080858703121561266d57600080fd5b843561267881612007565b935060208501359250604085013561268f81612007565b9396929550929360600135925050565b6020808252601a908201527f696e76616c696420696e707574206172726179206c656e677468000000000000604082015260600190565b634e487b7160e01b600052603260045260246000fd5b600080604083850312156126ff57600080fd5b505080516020909101519092909150565b80516001600160401b038116811461199f57600080fd5b6000806040838503121561273a57600080fd5b61274383612710565b915061275160208401612710565b90509250929050565b634e487b7160e01b600052601160045260246000fd5b818103818111156108b5576108b561275a565b600181815b808511156127be5781600019048211156127a4576127a461275a565b808516156127b157918102915b93841c9390800290612788565b509250929050565b6000826127d5575060016108b5565b816127e2575060006108b5565b81600181146127f857600281146128025761281e565b60019150506108b5565b60ff8411156128135761281361275a565b50506001821b6108b5565b5060208310610133831016604e8410600b8410161715612841575081810a6108b5565b61284b8383612783565b806000190482111561285f5761285f61275a565b029392505050565b600061256a60ff8416836127c6565b80820281158282048414176108b5576108b561275a565b6000826128aa57634e487b7160e01b600052601260045260246000fd5b500490565b634e487b7160e01b600052604160045260246000fd5b6000602082840312156128d757600080fd5b815161256a81612007565b6000808335601e198436030181126128f957600080fd5b8301803591506001600160401b0382111561291357600080fd5b602001915036819003821315611ef357600080fd5b8183823760009101908152919050565b60006020828403121561294a57600080fd5b81516001600160401b038082111561296157600080fd5b818401915084601f83011261297557600080fd5b815181811115612987576129876128af565b604051601f8201601f19908116603f011681019083821181831017156129af576129af6128af565b816040528281528760208487010111156129c857600080fd5b610ea183602083016020880161239e565b60208152600061256a60208301846123c2565b6000600182016129fe576129fe61275a565b5060010190565b6020808252600990820152683337b93134b23232b760b91b604082015260600190565b6001600160a01b0387811682528616602082015284151560408201526060810184905260a06080820181905281018290526000828460c0840137600060c0848401015260c0601f19601f8501168301019050979650505050505050565b600060208284031215612a9757600080fd5b5051919050565b60008251612ab081846020870161239e565b9190910192915050565b600060208284031215612acc57600080fd5b815161256a8161249156fea2646970667358221220bc9fbc7529b001d6cf12633ef963eca714396a792bdf0eb9a6e6f89a4c4b577c64736f6c63430008110033",
    "linkReferences": {}
  },
  "methodIdentifiers": {
    "CODE_HASH()": "0dff1165",
    "DYSON_FACTORY()": "429d9b1d",
    "WETH()": "ad5c4648",
    "deposit(address,address,uint256,address,uint256,uint256,uint256)": "d29f1409",
    "depositETH(address,uint256,address,uint256,uint256)": "8865305b",
    "fairPrice(address,uint256)": "12713bd2",
    "multicall(bytes[])": "ac9650d8",
    "owner()": "8da5cb5b",
    "rely(address,address,bool)": "c58b6a10",
    "rescueERC20(address,address,uint256)": "b2118a8d",
    "selfPermit(address,uint256,uint256,uint8,bytes32,bytes32)": "f3995c67",
    "setApprovalForAllWithSig(address,bool,uint256,bytes)": "f5eacc2f",
    "swap(address,address,uint256,address,uint256,uint256)": "7129b640",
    "swapETHIn(address,uint256,address,uint256)": "fecc1b9f",
    "swapETHInWithMultiHops(address[],uint256[],address,uint256)": "01c838fe",
    "swapETHOut(address,uint256,address,uint256,uint256)": "0cd19cbe",
    "swapETHOutWithMultiHops(address[],uint256[],address,uint256,uint256)": "687a0b10",
    "swapWithMultiHops(address[],uint256[],address,uint256,uint256)": "6d48058e",
    "transferOwnership(address)": "f2fde38b",
    "withdraw(address,uint256,address)": "69328dec",
    "withdrawETH(address,uint256,address)": "80500d20",
    "withdrawMultiPositions(address[],uint256[],address[])": "6d3a957c"
  },
  "id": 24
}